{
  "contractName": "NftMarketplace",
  "abi": [
    {
      "inputs": [],
      "stateMutability": "nonpayable",
      "type": "constructor"
    },
    {
      "inputs": [],
      "name": "InvalidState",
      "type": "error"
    },
    {
      "inputs": [],
      "name": "NftHasOwner",
      "type": "error"
    },
    {
      "inputs": [],
      "name": "NftIsNotCreated",
      "type": "error"
    },
    {
      "inputs": [],
      "name": "OnlyOwnerErr",
      "type": "error"
    },
    {
      "inputs": [],
      "name": "senderIsNotNftOwner",
      "type": "error"
    },
    {
      "inputs": [],
      "name": "isStopped",
      "outputs": [
        {
          "internalType": "bool",
          "name": "",
          "type": "bool"
        }
      ],
      "stateMutability": "view",
      "type": "function",
      "constant": true
    },
    {
      "stateMutability": "payable",
      "type": "receive",
      "payable": true
    },
    {
      "inputs": [],
      "name": "getContractBalance",
      "outputs": [
        {
          "internalType": "uint256",
          "name": "",
          "type": "uint256"
        }
      ],
      "stateMutability": "view",
      "type": "function",
      "constant": true
    },
    {
      "inputs": [
        {
          "internalType": "uint256",
          "name": "amount",
          "type": "uint256"
        }
      ],
      "name": "withdraw",
      "outputs": [],
      "stateMutability": "nonpayable",
      "type": "function"
    },
    {
      "inputs": [],
      "name": "emergencyWithdraw",
      "outputs": [],
      "stateMutability": "nonpayable",
      "type": "function"
    },
    {
      "inputs": [],
      "name": "selfDestruct",
      "outputs": [],
      "stateMutability": "nonpayable",
      "type": "function"
    },
    {
      "inputs": [],
      "name": "stopContract",
      "outputs": [],
      "stateMutability": "nonpayable",
      "type": "function"
    },
    {
      "inputs": [],
      "name": "resumeContract",
      "outputs": [],
      "stateMutability": "nonpayable",
      "type": "function"
    },
    {
      "inputs": [
        {
          "internalType": "bytes16",
          "name": "nftId",
          "type": "bytes16"
        },
        {
          "internalType": "bytes32",
          "name": "proof",
          "type": "bytes32"
        }
      ],
      "name": "purchaseNft",
      "outputs": [],
      "stateMutability": "payable",
      "type": "function",
      "payable": true
    },
    {
      "inputs": [
        {
          "internalType": "bytes32",
          "name": "nftHash",
          "type": "bytes32"
        }
      ],
      "name": "repurchaseNft",
      "outputs": [],
      "stateMutability": "payable",
      "type": "function",
      "payable": true
    },
    {
      "inputs": [
        {
          "internalType": "bytes32",
          "name": "nftHash",
          "type": "bytes32"
        }
      ],
      "name": "activateNft",
      "outputs": [],
      "stateMutability": "nonpayable",
      "type": "function"
    },
    {
      "inputs": [
        {
          "internalType": "bytes32",
          "name": "nftHash",
          "type": "bytes32"
        }
      ],
      "name": "deactivateNft",
      "outputs": [],
      "stateMutability": "nonpayable",
      "type": "function"
    },
    {
      "inputs": [
        {
          "internalType": "address",
          "name": "newOwner",
          "type": "address"
        }
      ],
      "name": "transferOwnership",
      "outputs": [],
      "stateMutability": "nonpayable",
      "type": "function"
    },
    {
      "inputs": [],
      "name": "getNftCount",
      "outputs": [
        {
          "internalType": "uint256",
          "name": "",
          "type": "uint256"
        }
      ],
      "stateMutability": "view",
      "type": "function",
      "constant": true
    },
    {
      "inputs": [
        {
          "internalType": "uint256",
          "name": "index",
          "type": "uint256"
        }
      ],
      "name": "getNftHashAtIndex",
      "outputs": [
        {
          "internalType": "bytes32",
          "name": "",
          "type": "bytes32"
        }
      ],
      "stateMutability": "view",
      "type": "function",
      "constant": true
    },
    {
      "inputs": [
        {
          "internalType": "bytes32",
          "name": "nftHash",
          "type": "bytes32"
        }
      ],
      "name": "getNftByHash",
      "outputs": [
        {
          "components": [
            {
              "internalType": "uint256",
              "name": "id",
              "type": "uint256"
            },
            {
              "internalType": "uint256",
              "name": "price",
              "type": "uint256"
            },
            {
              "internalType": "bytes32",
              "name": "proof",
              "type": "bytes32"
            },
            {
              "internalType": "address",
              "name": "owner",
              "type": "address"
            },
            {
              "internalType": "enum NftMarketplace.State",
              "name": "state",
              "type": "uint8"
            }
          ],
          "internalType": "struct NftMarketplace.Nft",
          "name": "",
          "type": "tuple"
        }
      ],
      "stateMutability": "view",
      "type": "function",
      "constant": true
    },
    {
      "inputs": [],
      "name": "getContractOwner",
      "outputs": [
        {
          "internalType": "address",
          "name": "",
          "type": "address"
        }
      ],
      "stateMutability": "view",
      "type": "function",
      "constant": true
    }
  ],
  "bytecode": "0x608060405260008060006101000a81548160ff02191690831515021790555034801561002a57600080fd5b5061003a3361003f60201b60201c565b610083565b80600460006101000a81548173ffffffffffffffffffffffffffffffffffffffff021916908373ffffffffffffffffffffffffffffffffffffffff16021790555050565b611887806100926000396000f3fe6080604052600436106100f75760003560e01c8063873baf1d1161008a578063d1766c6f11610059578063d1766c6f146102dc578063daaa8c00146102f8578063db2e21bc14610321578063f2fde38b14610338576100fe565b8063873baf1d146102485780639cb8a26a14610271578063c0267c5f14610288578063c4bc5da5146102c5576100fe565b80633f683b6a116100c65780633f683b6a1461019c578063442890d5146101c7578063692f1d12146101f25780636f9fb98a1461021d576100fe565b806302ce52c214610103578063070bad621461014057806312253a6c1461015c5780632e1a7d4d14610173576100fe565b366100fe57005b600080fd5b34801561010f57600080fd5b5061012a60048036038101906101259190611288565b610361565b60405161013791906112ce565b60405180910390f35b61015a60048036038101906101559190611315565b61037e565b005b34801561016857600080fd5b506101716104d3565b005b34801561017f57600080fd5b5061019a60048036038101906101959190611288565b61055b565b005b3480156101a857600080fd5b506101b1610699565b6040516101be919061135d565b60405180910390f35b3480156101d357600080fd5b506101dc6106aa565b6040516101e991906113b9565b60405180910390f35b3480156101fe57600080fd5b506102076106d4565b60405161021491906113e3565b60405180910390f35b34801561022957600080fd5b506102326106de565b60405161023f91906113e3565b60405180910390f35b34801561025457600080fd5b5061026f600480360381019061026a9190611315565b610758565b005b34801561027d57600080fd5b506102866108d2565b005b34801561029457600080fd5b506102af60048036038101906102aa9190611315565b610990565b6040516102bc919061150a565b60405180910390f35b3480156102d157600080fd5b506102da610a6c565b005b6102f660048036038101906102f1919061157d565b610af4565b005b34801561030457600080fd5b5061031f600480360381019061031a9190611315565b610cad565b005b34801561032d57600080fd5b50610336610f06565b005b34801561034457600080fd5b5061035f600480360381019061035a91906115e9565b61105a565b005b600060026000838152602001908152602001600020549050919050565b60008054906101000a900460ff161561039657600080fd5b61039f816110d2565b6103d5576040517f4bd7421500000000000000000000000000000000000000000000000000000000815260040160405180910390fd5b6103de81611141565b610414576040517fe32ef42700000000000000000000000000000000000000000000000000000000815260040160405180910390fd5b600060016000838152602001908152602001600020905060028081111561043e5761043d61142b565b5b8160030160149054906101000a900460ff1660028111156104625761046161142b565b5b14610499576040517fbaf3f0f700000000000000000000000000000000000000000000000000000000815260040160405180910390fd5b60008160030160146101000a81548160ff021916908360028111156104c1576104c061142b565b5b02179055503481600101819055505050565b6104db6106aa565b73ffffffffffffffffffffffffffffffffffffffff163373ffffffffffffffffffffffffffffffffffffffff161461053f576040517f4070b67900000000000000000000000000000000000000000000000000000000815260040160405180910390fd5b60016000806101000a81548160ff021916908315150217905550565b6105636106aa565b73ffffffffffffffffffffffffffffffffffffffff163373ffffffffffffffffffffffffffffffffffffffff16146105c7576040517f4070b67900000000000000000000000000000000000000000000000000000000815260040160405180910390fd5b6000600460009054906101000a900473ffffffffffffffffffffffffffffffffffffffff1673ffffffffffffffffffffffffffffffffffffffff168260405161060f90611647565b60006040518083038185875af1925050503d806000811461064c576040519150601f19603f3d011682016040523d82523d6000602084013e610651565b606091505b5050905080610695576040517f08c379a000000000000000000000000000000000000000000000000000000000815260040161068c906116b9565b60405180910390fd5b5050565b60008054906101000a900460ff1681565b6000600460009054906101000a900473ffffffffffffffffffffffffffffffffffffffff16905090565b6000600354905090565b60006106e86106aa565b73ffffffffffffffffffffffffffffffffffffffff163373ffffffffffffffffffffffffffffffffffffffff161461074c576040517f4070b67900000000000000000000000000000000000000000000000000000000815260040160405180910390fd5b60004790508091505090565b6107606106aa565b73ffffffffffffffffffffffffffffffffffffffff163373ffffffffffffffffffffffffffffffffffffffff16146107c4576040517f4070b67900000000000000000000000000000000000000000000000000000000815260040160405180910390fd5b60008054906101000a900460ff16156107dc57600080fd5b6107e5816110d2565b61081b576040517f4bd7421500000000000000000000000000000000000000000000000000000000815260040160405180910390fd5b6000600160008381526020019081526020016000209050600060028111156108465761084561142b565b5b8160030160149054906101000a900460ff16600281111561086a5761086961142b565b5b146108a1576040517fbaf3f0f700000000000000000000000000000000000000000000000000000000815260040160405180910390fd5b60018160030160146101000a81548160ff021916908360028111156108c9576108c861142b565b5b02179055505050565b6108da6106aa565b73ffffffffffffffffffffffffffffffffffffffff163373ffffffffffffffffffffffffffffffffffffffff161461093e576040517f4070b67900000000000000000000000000000000000000000000000000000000815260040160405180910390fd5b60008054906101000a900460ff1661095557600080fd5b600460009054906101000a900473ffffffffffffffffffffffffffffffffffffffff1673ffffffffffffffffffffffffffffffffffffffff16ff5b6109986111f3565b600160008381526020019081526020016000206040518060a00160405290816000820154815260200160018201548152602001600282015481526020016003820160009054906101000a900473ffffffffffffffffffffffffffffffffffffffff1673ffffffffffffffffffffffffffffffffffffffff1673ffffffffffffffffffffffffffffffffffffffff1681526020016003820160149054906101000a900460ff166002811115610a4f57610a4e61142b565b5b6002811115610a6157610a6061142b565b5b815250509050919050565b610a746106aa565b73ffffffffffffffffffffffffffffffffffffffff163373ffffffffffffffffffffffffffffffffffffffff1614610ad8576040517f4070b67900000000000000000000000000000000000000000000000000000000815260040160405180910390fd5b60008060006101000a81548160ff021916908315150217905550565b60008054906101000a900460ff1615610b0c57600080fd5b60008233604051602001610b21929190611742565b604051602081830303815290604052805190602001209050610b4281611141565b15610b79576040517f80a315b000000000000000000000000000000000000000000000000000000000815260040160405180910390fd5b600060036000815480929190610b8e9061179d565b9190505590508160026000838152602001908152602001600020819055506040518060a001604052808281526020013481526020018481526020013373ffffffffffffffffffffffffffffffffffffffff16815260200160006002811115610bf957610bf861142b565b5b8152506001600084815260200190815260200160002060008201518160000155602082015181600101556040820151816002015560608201518160030160006101000a81548173ffffffffffffffffffffffffffffffffffffffff021916908373ffffffffffffffffffffffffffffffffffffffff16021790555060808201518160030160146101000a81548160ff02191690836002811115610c9f57610c9e61142b565b5b021790555090505050505050565b610cb56106aa565b73ffffffffffffffffffffffffffffffffffffffff163373ffffffffffffffffffffffffffffffffffffffff1614610d19576040517f4070b67900000000000000000000000000000000000000000000000000000000815260040160405180910390fd5b60008054906101000a900460ff1615610d3157600080fd5b610d3a816110d2565b610d70576040517f4bd7421500000000000000000000000000000000000000000000000000000000815260040160405180910390fd5b600060016000838152602001908152602001600020905060006002811115610d9b57610d9a61142b565b5b8160030160149054906101000a900460ff166002811115610dbf57610dbe61142b565b5b14610df6576040517fbaf3f0f700000000000000000000000000000000000000000000000000000000815260040160405180910390fd5b60008160030160009054906101000a900473ffffffffffffffffffffffffffffffffffffffff1673ffffffffffffffffffffffffffffffffffffffff168260010154604051610e4490611647565b60006040518083038185875af1925050503d8060008114610e81576040519150601f19603f3d011682016040523d82523d6000602084013e610e86565b606091505b5050905080610eca576040517f08c379a0000000000000000000000000000000000000000000000000000000008152600401610ec190611831565b60405180910390fd5b60028260030160146101000a81548160ff02191690836002811115610ef257610ef161142b565b5b021790555060008260010181905550505050565b60008054906101000a900460ff16610f1d57600080fd5b610f256106aa565b73ffffffffffffffffffffffffffffffffffffffff163373ffffffffffffffffffffffffffffffffffffffff1614610f89576040517f4070b67900000000000000000000000000000000000000000000000000000000815260040160405180910390fd5b6000600460009054906101000a900473ffffffffffffffffffffffffffffffffffffffff1673ffffffffffffffffffffffffffffffffffffffff1647604051610fd190611647565b60006040518083038185875af1925050503d806000811461100e576040519150601f19603f3d011682016040523d82523d6000602084013e611013565b606091505b5050905080611057576040517f08c379a000000000000000000000000000000000000000000000000000000000815260040161104e906116b9565b60405180910390fd5b50565b6110626106aa565b73ffffffffffffffffffffffffffffffffffffffff163373ffffffffffffffffffffffffffffffffffffffff16146110c6576040517f4070b67900000000000000000000000000000000000000000000000000000000815260040160405180910390fd5b6110cf816111af565b50565b60008073ffffffffffffffffffffffffffffffffffffffff166001600084815260200190815260200160002060030160009054906101000a900473ffffffffffffffffffffffffffffffffffffffff1673ffffffffffffffffffffffffffffffffffffffff1614159050919050565b60003373ffffffffffffffffffffffffffffffffffffffff166001600084815260200190815260200160002060030160009054906101000a900473ffffffffffffffffffffffffffffffffffffffff1673ffffffffffffffffffffffffffffffffffffffff16149050919050565b80600460006101000a81548173ffffffffffffffffffffffffffffffffffffffff021916908373ffffffffffffffffffffffffffffffffffffffff16021790555050565b6040518060a00160405280600081526020016000815260200160008019168152602001600073ffffffffffffffffffffffffffffffffffffffff168152602001600060028111156112475761124661142b565b5b81525090565b600080fd5b6000819050919050565b61126581611252565b811461127057600080fd5b50565b6000813590506112828161125c565b92915050565b60006020828403121561129e5761129d61124d565b5b60006112ac84828501611273565b91505092915050565b6000819050919050565b6112c8816112b5565b82525050565b60006020820190506112e360008301846112bf565b92915050565b6112f2816112b5565b81146112fd57600080fd5b50565b60008135905061130f816112e9565b92915050565b60006020828403121561132b5761132a61124d565b5b600061133984828501611300565b91505092915050565b60008115159050919050565b61135781611342565b82525050565b6000602082019050611372600083018461134e565b92915050565b600073ffffffffffffffffffffffffffffffffffffffff82169050919050565b60006113a382611378565b9050919050565b6113b381611398565b82525050565b60006020820190506113ce60008301846113aa565b92915050565b6113dd81611252565b82525050565b60006020820190506113f860008301846113d4565b92915050565b61140781611252565b82525050565b611416816112b5565b82525050565b61142581611398565b82525050565b7f4e487b7100000000000000000000000000000000000000000000000000000000600052602160045260246000fd5b6003811061146b5761146a61142b565b5b50565b600081905061147c8261145a565b919050565b600061148c8261146e565b9050919050565b61149c81611481565b82525050565b60a0820160008201516114b860008501826113fe565b5060208201516114cb60208501826113fe565b5060408201516114de604085018261140d565b5060608201516114f1606085018261141c565b5060808201516115046080850182611493565b50505050565b600060a08201905061151f60008301846114a2565b92915050565b60007fffffffffffffffffffffffffffffffff0000000000000000000000000000000082169050919050565b61155a81611525565b811461156557600080fd5b50565b60008135905061157781611551565b92915050565b600080604083850312156115945761159361124d565b5b60006115a285828601611568565b92505060206115b385828601611300565b9150509250929050565b6115c681611398565b81146115d157600080fd5b50565b6000813590506115e3816115bd565b92915050565b6000602082840312156115ff576115fe61124d565b5b600061160d848285016115d4565b91505092915050565b600081905092915050565b50565b6000611631600083611616565b915061163c82611621565b600082019050919050565b600061165282611624565b9150819050919050565b600082825260208201905092915050565b7f5472616e73666572206661696c65642e00000000000000000000000000000000600082015250565b60006116a360108361165c565b91506116ae8261166d565b602082019050919050565b600060208201905081810360008301526116d281611696565b9050919050565b6000819050919050565b6116f46116ef82611525565b6116d9565b82525050565b60008160601b9050919050565b6000611712826116fa565b9050919050565b600061172482611707565b9050919050565b61173c61173782611398565b611719565b82525050565b600061174e82856116e3565b60108201915061175e828461172b565b6014820191508190509392505050565b7f4e487b7100000000000000000000000000000000000000000000000000000000600052601160045260246000fd5b60006117a882611252565b91507fffffffffffffffffffffffffffffffffffffffffffffffffffffffffffffffff82036117da576117d961176e565b5b600182019050919050565b7f5472616e73666572206661696c64210000000000000000000000000000000000600082015250565b600061181b600f8361165c565b9150611826826117e5565b602082019050919050565b6000602082019050818103600083015261184a8161180e565b905091905056fea26469706673582212200e107dae0231bdcd514d13ca3756d1b270ddc1f7cc2b42312dedbd5204ccace064736f6c63430008100033",
  "immutableReferences": {},
  "source": "// SPDX-License-Identifier: MIT\r\npragma solidity >=0.4.22 <0.9.0;\r\n\r\ncontract NftMarketplace {\r\n\r\n    enum State {\r\n        Purchased,\r\n        Activated,\r\n        Deactivated\r\n    }\r\n\r\n    struct Nft {\r\n        uint id; //32\r\n        uint price; //32\r\n        bytes32 proof; //32\r\n        address owner; //20\r\n        State state; //1\r\n    }\r\n\r\n    bool public isStopped = false; \r\n\r\n    // mapping nftHash to Nft data\r\n    mapping(bytes32 => Nft) private ownedNfts;\r\n\r\n    // mapping of nftID to nftHash\r\n    mapping(uint => bytes32) private ownedNftHash;\r\n\r\n    // number of all nfts + id of nfts\r\n    uint private totalOwnedNfts;\r\n\r\n    // contract owner address (admin)\r\n    address payable private owner;\r\n\r\n    constructor() {\r\n        setContractOwner(msg.sender);\r\n    }\r\n\r\n    modifier onlyOwner() {\r\n        if (msg.sender != getContractOwner()) {\r\n            revert OnlyOwnerErr();\r\n        }\r\n        _;\r\n    }\r\n\r\n    modifier onlyWhenNotStopped() {\r\n        require(!isStopped);\r\n        _;\r\n    }\r\n\r\n    modifier onlyWhenStopped() {\r\n        require(isStopped);\r\n        _;\r\n    }\r\n\r\n    /// Nft has already a Owner!\r\n    error NftHasOwner();\r\n\r\n    /// Sender is not NFT owner!\r\n    error senderIsNotNftOwner();\r\n\r\n    /// Only the Owner can call this function!\r\n    error OnlyOwnerErr();\r\n\r\n    /// Nft has invalid state!\r\n    error InvalidState();\r\n\r\n    /// Nft does not exist!\r\n    error NftIsNotCreated();\r\n\r\n    receive()\r\n        external\r\n        payable\r\n    {}\r\n\r\n    function getContractBalance()\r\n        external\r\n        view\r\n        onlyOwner\r\n        returns(\r\n            uint\r\n        )\r\n    {\r\n        uint result = address(this).balance;\r\n        return result;\r\n    }\r\n    \r\n    function withdraw(\r\n        uint amount\r\n    )\r\n        external\r\n        onlyOwner\r\n    {\r\n        (bool success, ) = owner.call{value: amount}(\"\");\r\n        require(success, \"Transfer failed.\");\r\n    }\r\n\r\n     function emergencyWithdraw()\r\n        external\r\n        onlyWhenStopped\r\n        onlyOwner\r\n    {\r\n        (bool success, ) = owner.call{value: address(this).balance}(\"\");\r\n        require(success, \"Transfer failed.\");\r\n    }\r\n\r\n    function selfDestruct()\r\n        external\r\n        onlyOwner\r\n        onlyWhenStopped\r\n    {\r\n        selfdestruct(owner);\r\n    }\r\n\r\n    function stopContract()\r\n        external\r\n        onlyOwner\r\n    {\r\n        isStopped = true;\r\n    }\r\n\r\n    function resumeContract()\r\n        external\r\n        onlyOwner\r\n    {\r\n        isStopped = false;\r\n    }\r\n\r\n    function purchaseNft(\r\n        bytes16 nftId,\r\n        bytes32 proof\r\n    ) \r\n        external\r\n        payable\r\n        onlyWhenNotStopped\r\n    {\r\n        bytes32 nftHash = keccak256(abi.encodePacked(nftId, msg.sender));\r\n\r\n        if (hasNftOwnership(nftHash)) {\r\n            revert NftHasOwner();\r\n        }\r\n\r\n        uint id = totalOwnedNfts++;\r\n\r\n        ownedNftHash[id] = nftHash;\r\n        ownedNfts[nftHash] = Nft({\r\n            id: id,\r\n            price: msg.value,\r\n            proof: proof,\r\n            owner: msg.sender,\r\n            state: State.Purchased\r\n        });\r\n    }\r\n\r\n    function repurchaseNft \r\n    (\r\n        bytes32 nftHash\r\n    )\r\n        external\r\n        payable\r\n        onlyWhenNotStopped\r\n    {\r\n        if (!isNftCreated(nftHash)) {\r\n            revert NftIsNotCreated();\r\n        }\r\n        \r\n        if (!hasNftOwnership(nftHash)) {\r\n            revert senderIsNotNftOwner();\r\n        }\r\n\r\n        Nft storage nft = ownedNfts[nftHash];\r\n\r\n        if (nft.state != State.Deactivated) {\r\n            revert InvalidState();\r\n        }\r\n\r\n        nft.state = State.Purchased;\r\n        nft.price = msg.value;\r\n        \r\n    }\r\n\r\n    function activateNft (\r\n        bytes32 nftHash\r\n    )\r\n        external\r\n        onlyOwner\r\n        onlyWhenNotStopped\r\n    {\r\n\r\n        if (!isNftCreated(nftHash)) {\r\n            revert NftIsNotCreated();\r\n        }\r\n\r\n        Nft storage nft = ownedNfts[nftHash];\r\n\r\n        if (nft.state != State.Purchased) {\r\n            revert InvalidState();\r\n        }\r\n\r\n        nft.state = State.Activated;\r\n    }\r\n\r\n    function deactivateNft (\r\n        bytes32 nftHash\r\n    )\r\n        external\r\n        onlyOwner\r\n        onlyWhenNotStopped\r\n    {\r\n\r\n        if (!isNftCreated(nftHash)) {\r\n            revert NftIsNotCreated();\r\n        }\r\n\r\n        Nft storage nft = ownedNfts[nftHash];\r\n\r\n        if (nft.state != State.Purchased) {\r\n            revert InvalidState();\r\n        }\r\n\r\n        (bool success, ) = nft.owner.call{value: nft.price}(\"\");\r\n        require(success, \"Transfer faild!\");\r\n\r\n        nft.state = State.Deactivated;\r\n        nft.price = 0;\r\n    }\r\n\r\n    function transferOwnership(address newOwner) \r\n        external\r\n        onlyOwner\r\n    {\r\n        setContractOwner(newOwner);\r\n    }\r\n\r\n    function getNftCount() \r\n        external\r\n        view\r\n        returns (uint)\r\n    {\r\n        return totalOwnedNfts;\r\n    }\r\n\r\n    function getNftHashAtIndex(uint index) \r\n        external\r\n        view\r\n        returns(bytes32)\r\n    {\r\n        return ownedNftHash[index];\r\n    }\r\n\r\n    function getNftByHash(bytes32 nftHash) \r\n        external\r\n        view\r\n        returns(Nft memory)\r\n    {\r\n        return ownedNfts[nftHash];\r\n    }\r\n\r\n    function getContractOwner() \r\n        public\r\n        view\r\n        returns(address)\r\n    {\r\n        return owner;\r\n    }\r\n\r\n    function isNftCreated\r\n    (\r\n        bytes32 nftHash\r\n    )\r\n        private\r\n        view\r\n        returns (bool)\r\n    {\r\n        return ownedNfts[nftHash].owner != 0x0000000000000000000000000000000000000000;\r\n    }\r\n\r\n    function setContractOwner(address newOwner) \r\n        private \r\n    {\r\n        owner = payable(newOwner);\r\n    }\r\n\r\n    function hasNftOwnership(bytes32 nftHash)\r\n        private\r\n        view\r\n        returns(bool)\r\n    {\r\n        return ownedNfts[nftHash].owner == msg.sender;\r\n    }\r\n}",
  "sourcePath": "C:\\Posao\\Web3\\Blockchain\\marketplace-eth\\contracts\\NftMarketplace.sol",
  "compiler": {
    "name": "solc",
    "version": "0.8.16+commit.07a7930e.Emscripten.clang"
  },
  "schemaVersion": "3.4.8",
  "updatedAt": "2022-08-25T20:33:26.862Z",
  "networkType": "ethereum",
  "devdoc": {
    "kind": "dev",
    "methods": {},
    "version": 1
  },
  "userdoc": {
    "errors": {
      "InvalidState()": [
        {
          "notice": "Nft has invalid state!"
        }
      ],
      "NftHasOwner()": [
        {
          "notice": "Nft has already a Owner!"
        }
      ],
      "NftIsNotCreated()": [
        {
          "notice": "Nft does not exist!"
        }
      ],
      "OnlyOwnerErr()": [
        {
          "notice": "Only the Owner can call this function!"
        }
      ],
      "senderIsNotNftOwner()": [
        {
          "notice": "Sender is not NFT owner!"
        }
      ]
    },
    "kind": "user",
    "methods": {},
    "version": 1
  }
}